S0210000556E646572636162696E65744C4544436F6E74726F6C6C65722E7372656336
S113000009C016C09AC064C013C012C011C010C089
S11300100FC00EC011241FBECFE9CDBF20E0A0E663
S1130020B0E001C01D92A536B207E1F734D0BBC0E1
S1130030E7CF10926200109261001092600089B7BD
S1130040826089BF81E090E0089589B78D7F89BF80
S113005010926200109261001092600081E090E0C2
S11300600895C29B04C08091640089BDE2DF909131
S1130070600080916300981710F0E7DF19BC80914D
S1130080610090916200892B19F08091640089BD10
S113009081E090E0089587B3837F826087BB88B353
S11300A08E7F886188BB8FB583628FBD83B7816083
S11300B083BF8BB780628BBF85B3836E85BB8FEFA5
S11300C08093640083E0809363007894CADFFECF5A
S11300D01F920F920FB60F9211242F938F939F9319
S11300E080916100909162008A3C974BA8F0109235
S11300F062001092610090916000809163009817F3
S113010028F080916300809360000FC080916000AC
S11301108F5F8093600009C08091610090916200BC
S1130120019690936200809361009F918F912F912B
S11301300F900FBE0F901F90189578941F920F92F6
S11301400FB60F9211248F939F9388B383FF0FC030
S11301509091630090916300993320F09CE3909315
S1130160630005C090916300925E9093630084FFE6
S113017013C080916400811103C0109264000CC00C
S113018080916400893118F41092640005C0809154
S113019064008951809364009F918F910F900FBEEA
S10D01A00F901F901895F894FFCFFC
S9030000FC
