:1000000009C016C036C102C113C012C011C010C051
:100010000FC00EC011241FBECFE9CDBF20E0A0E667
:10002000B0E001C01D92AA36B207E1F792D09DC19F
:10003000E7CF10926200109261001092600081E0A0
:1000400090E00895CF93DF93B29B05C08091690043
:10005000882309F43DC0B299ECDF809169008823C0
:1000600021F080916400809589BD8091690088238A
:1000700071F09091600080916300981740F080913A
:1000800063008C3309F041C002C08FEF89BD8091BD
:100090006600882309F458C0C2E0DFEFCADFD9BD8B
:1000A0008091610090916200893A9340C8F3C1DF6A
:1000B00080916400809589BD80916100909162007B
:1000C000893A9340C8F3C15049F7109266003CC08A
:1000D00081E080936900ADDFE7E3F0E080916100AB
:1000E0009091620020916400BF0117D1822F90E0AF
:1000F0006817790708F0AFCF809161009091620096
:10010000BF010BD1609569BDE9CF1092690091DF05
:10011000E7E3F0E08091610090916200209164003B
:10012000BF01FBD0822F90E06817790708F0ADCFB0
:10013000809161009091620020916400BF01EDD038
:100140002095620F69BDE6CF81E090E0DF91CF910D
:10015000089587B3837E826087BB88B3897F886177
:1001600088BB8FB583638FBD83B7816083BF8BB737
:1001700080628BBF85B3886185BBB89A81E090E0CF
:10018000E0D080936400809164008091640082E0FC
:1001900090E0D7D08093630080916300882391F131
:1001A000809163008D3370F51092620010926100AF
:1001B000109260001092690010926800109267001F
:1001C00010926600109265008FEF89BD89B782603A
:1001D00089BF789437DF80916800882339F0609177
:1001E000640081E090E0B4D01092680080916700D4
:1001F000882381F36091630082E090E0A9D010929F
:100200006700E8CF81E080936300CECF1F920F920A
:100210000FB60F9211242F938F939F9380916100BB
:10022000909162008631974B98F010926200109284
:1002300061009091600080916300981718F08091A0
:10024000630003C0809160008F5F8093600009C0ED
:10025000809161009091620001969093620080937A
:1002600061009F918F912F910F900FBE0F901F9063
:10027000189578941F920F920FB60F9211248F93B6
:100280009F9386B3C09A83FD12C09091650093FD41
:1002900028C00DC090916300993348F19CE390937E
:1002A000630091E09093660091E09093670084FD75
:1002B0000EC09091650094FD20C009C0909164002B
:1002C000911121C01092640091E090936800809396
:1002D0006500C0989F918F910F900FBE0F901F9057
:1002E0001895909163009C33A9F691E003C090911A
:1002F00063009D5F90936300D7CF9091640091114C
:10030000DDCF9FEF07C0909164009A31D8F29091B1
:100310006400995190936400D7CFAA1BBB1B51E195
:1003200007C0AA1FBB1FA617B70710F0A61BB70B65
:10033000881F991F5A95A9F780959095BC01CD010A
:100340000895E199FECF8EBBE09A99278DB3089569
:10035000262FE199FECF1CBA8EBB2DBB0FB6F894A9
:0E036000E29AE19A0FBE01960895F894FFCF3D
:00000001FF
